:1000000080270020692A0000DF8400003D2A0000CC
:100010003D2A00003D2A00003D2A000000000000AB
:100020000000000000000000000000009926000011
:100030003D2A000000000000452600003D2A000087
:1000400051270000512700005127000051270000D0
:1000500051270000512700005127000051270000C0
:1000600051270000512700005127000051270000B0
:1000700051270000512700005127000051270000A0
:100080005127000051270000512700005127000090
:100090005127000051270000512700005127000080
:1000A0005127000051270000512700005127000070
:1000B0005127000051270000512700005127000060
:1000C0005127000051270000512700005127000050
:1000D0005127000051270000512700005127000040
:1000E0005127000051270000512700005127000030
:1000F0005127000051270000512700005127000020
:1001000080F0004002E000BF81F0004142001FBFCC
:100110005FEA410392EA030F7FEA226C7FEA236CD5
:100120006AD04FEA1262D2EB1363C1BFD2184140CA
:1001300048404140B8BF5B42192B88BF704710F060
:10014000004F40F4000020F07F4018BF404211F003
:10015000004F41F4000121F07F4118BF494292EA6B
:10016000030F3FD0A2F1010241FA03FC10EB0C0097
:10017000C3F1200301FA03F100F0004302D5494224
:1001800060EB4000B0F5000F13D3B0F1807F06D3D1
:1001900040084FEA310102F10102FE2A51D2B1F1C9
:1001A000004F40EBC25008BF20F0010040EA0300BE
:1001B0007047490040EB0000013A28BFB0F5000F3E
:1001C000EDD2B0FA80FCACF1080CB2EB0C0200FAF4
:1001D0000CF0AABF00EBC25052421843BCBFD04043
:1001E0001843704792F0000F81F4000106BF80F4BD
:1001F00000000132013BB5E74FEA41037FEA226C80
:1002000018BF7FEA236C21D092EA030F04D092F04A
:10021000000F08BF0846704790EA010F1CBF00207E
:10022000704712F07F4F04D1400028BF40F00040DB
:10023000704712F100723CBF00F50000704700F0FB
:10024000004343F0FE4040F4000070477FEA226222
:1002500016BF08467FEA23630146420206BF5FEAF3
:10026000412390EA010F40F4800070474FF00003F3
:1002700004E000BF10F0004348BF40425FEA000CBA
:1002800008BF704743F0964301464FF000001CE062
:1002900050EA010208BF70474FF000030AE000BFB8
:1002A00050EA010208BF704711F0004302D54042F6
:1002B00061EB41015FEA010C02BF84460146002068
:1002C00043F0B64308BFA3F18053A3F50003BCFA83
:1002D0008CF2083AA3EBC25310DB01FA02FC634430
:1002E00000FA02FCC2F12002BCF1004F20FA02F237
:1002F00043EB020008BF20F00100704702F120022A
:1003000001FA02FCC2F1200250EA4C0021FA02F28A
:1003100043EB020008BF20EADC7070474FF0FF0C8F
:100320001CEAD0521EBF1CEAD15392EA0C0F93EA8A
:100330000C0F6FD01A4480EA010C400218BF5FEA2C
:1003400041211ED04FF0006343EA501043EA51119F
:10035000A0FB01310CF00040B1F5000F3EBF490099
:1003600041EAD3715B0040EA010062F17F02FD2A9D
:100370001DD8B3F1004F40EBC25008BF20F0010080
:10038000704790F0000F0CF0004C08BF49024CEA97
:10039000502040EA51207F3AC2BFD2F1FF0340EA29
:1003A000C250704740F400004FF00003013A5DDC9A
:1003B00012F1190FDCBF00F000407047C2F10002DB
:1003C000410021FA02F1C2F1200200FA02FC5FEAC8
:1003D000310040F1000053EA4C0308BF20EADC7012
:1003E000704792F0000F00F0004C02BF400010F484
:1003F000000F013AF9D040EA0C0093F0000F01F031
:10040000004C02BF490011F4000F013BF9D041EA52
:100410000C018FE70CEAD15392EA0C0F18BF93EA54
:100420000C0F0AD030F0004C18BF31F0004CD8D17E
:1004300080EA010000F00040704790F0000F17BF05
:1004400090F0004F084691F0000F91F0004F14D04B
:1004500092EA0C0F01D142020FD193EA0C0F03D1A3
:100460004B0218BF084608D180EA010000F00040A6
:1004700040F0FE4040F40000704740F0FE4040F481
:10048000400070474FF0FF0C1CEAD0521EBF1CEA20
:10049000D15392EA0C0F93EA0C0F69D0A2EB03023E
:1004A00080EA010C49024FEA402037D04FF08053D8
:1004B00043EA111143EA10130CF000408B4238BF9D
:1004C0005B0042F17D024FF4000C8B4224BF5B1AAB
:1004D00040EA0C00B3EB510F24BFA3EB510340EAF9
:1004E0005C00B3EB910F24BFA3EB910340EA9C00A7
:1004F000B3EBD10F24BFA3EBD10340EADC001B0117
:1005000018BF5FEA1C1CE0D1FD2A3FF650AF8B42BA
:1005100040EBC25008BF20F0010070470CF0004CC7
:100520004CEA50207F32C2BFD2F1FF0340EAC250F2
:10053000704740F400004FF00003013A37E792F0B3
:10054000000F00F0004C02BF400010F4000F013A11
:10055000F9D040EA0C0093F0000F01F0004C02BF0C
:10056000490011F4000F013BF9D041EA0C0195E775
:100570000CEAD15392EA0C0F08D142027FF47DAF0E
:1005800093EA0C0F7FF470AF084676E793EA0C0FFE
:1005900004D14B023FF44CAF08466EE730F0004CFC
:1005A00018BF31F0004CCAD130F000427FF45CAF8C
:1005B00031F000437FF43CAF5FE700BF4FF0FF3CFA
:1005C00006E000BF4FF0010C02E000BF4FF0010C4D
:1005D0004DF804CD4FEA40024FEA41037FEA226C16
:1005E00018BF7FEA236C11D001B052EA530C18BF38
:1005F00090EA010F58BFB2EB030088BFC81738BF9D
:100600006FEAE17018BF40F0010070477FEA226C8A
:1006100002D15FEA402C05D17FEA236CE4D15FEA86
:10062000412CE1D05DF8040B704700BF84460846BA
:100630006146FFE70FB5FFF7C9FF002848BF10F17B
:10064000000F0FBD4DF808EDFFF7F4FF0CBF0120C0
:1006500000205DF808FB00BF4DF808EDFFF7EAFF4A
:1006600034BF012000205DF808FB00BF4DF808ED05
:10067000FFF7E0FF94BF012000205DF808FB00BFFA
:100680004DF808EDFFF7D2FF94BF012000205DF880
:1006900008FB00BF4DF808EDFFF7C8FF34BF01208D
:1006A00000205DF808FB00BF4FEA4002B2F1FE4FA8
:1006B0000FD34FF09E03B3EB12620DD94FEA002324
:1006C00043F0004310F0004F23FA02F018BF4042FD
:1006D00070474FF00000704712F1610F01D14202E4
:1006E00005D110F0004008BF6FF0004070474FF098
:1006F0000000704742000ED2B2F1FE4F0BD34FF014
:100700009E03B3EB126209D44FEA002343F0004387
:1007100023FA02F070474FF00000704712F1610FAA
:1007200001D1420202D14FF0FF3070474FF000007C
:10073000704700BF53B94AB9002908BF00281CBF41
:100740004FF0FF314FF0FF3000F06CB9ADF1080C05
:100750006DE904CE00F006F8DDF804E0DDE90223DF
:1007600004B070472DE9F047089E0D4604468E46BA
:10077000002B40F082808A42174646D9B2FA82F2B4
:100780004AB1C2F1200105FA02F320FA01F19740C3
:1007900041EA030E94404FEA1748230CBEFBF8FCD5
:1007A000B9B208FB1CEE43EA0E430CFB01F0984281
:1007B0000AD9FB180CF1FF3580F01681984240F2FF
:1007C0001381ACF1020C3B441B1AA4B2B3FBF8F04A
:1007D00008FB103344EA034400FB01F1A14209D9AC
:1007E0003C1900F1FF3380F00181A14240F2FE800C
:1007F00002383C44641A40EA0C4000211EB1D44047
:100800000023C6E90043BDE8F08702B9FFDEB2FA73
:1008100082F2002A4FD1CB1B4FEA174E1FFA87F8FE
:100820000121B3FBFEFC250C0EFB1C3345EA0345FE
:1008300008FB0CF3AB4207D97D190CF1FF3002D253
:10084000AB4200F2E7808446ED1AA3B2B5FBFEF09E
:100850000EFB105543EA054408FB00F8A04507D9F4
:100860003C1900F1FF3302D2A04500F2D7801846B0
:10087000A4EB080440EA0C40C0E78B4208D9002EE4
:1008800000F0AF800021C6E900050846BDE8F0870A
:10089000B3FA83F100294BD1AB4202D3824200F27A
:1008A000B780841A65EB030301209E46002EAAD070
:1008B000C6E9004EA7E7C2F1200C01FA02F3974007
:1008C00020FA0CF04FEA174E21FA0CFC1843BCFB3F
:1008D000FEF1050C0EFB11CC1FFA87F845EA0C451A
:1008E00001FB08F3AB4204FA02F409D97D1901F1C6
:1008F000FF3C80F08B80AB4240F2888002393D445F
:10090000EB1A85B2B3FBFEF00EFB103345EA03454C
:1009100000FB08F3AB4207D97D1900F1FF3C71D20F
:10092000AB426FD902383D44EB1A40EA014178E707
:10093000C1F1200C8B4022FA0CF71F4320FA0CF473
:1009400005FA01F34FEA174E25FA0CF51C43230C68
:10095000B5FBFEF91FFA87F80EFB195543EA05456A
:1009600009FB08FAAA4502FA01F200FA01F308D9D4
:100970007D1909F1FF3047D2AA4545D9A9F10209ED
:100980003D44A5EB0A05A4B2B5FBFEF00EFB1055E5
:1009900044EA054400FB08F8A04507D93C1900F1DA
:1009A000FF352DD2A0452BD902383C4440EA0940FE
:1009B000A4EB0804A0FB02894C45C6464D4619D35A
:1009C00016D05EB1B3EB0E0264EB050404FA0CFC26
:1009D000CA404CEA0202CC40C6E900240021BDE82E
:1009E000F087314630460EE7AC46EDE6184601E7A3
:1009F0004345E6D2B8EB020E69EB07050138E0E7A4
:100A00002846D3E760468FE78146BAE7614677E735
:100A100008464BE7ACF1020C3D4415E702383C4474
:100A200026E700BF704700BF014B01221A607047E4
:100A30002C060020436873B51B6801258D401D42BC
:100A400004460ED10F49104A10484FF48C6307F04A
:100A50005FFC0F4807F05CFC0B484FF48C6107F01B
:100A600023FD2669A36801A95B682046984730B931
:100A70003268019B53402B4214BF0120002002B07A
:100A800070BD00BFEA900000C090000028910000F7
:100A900045910000DFF8B08080B54FF07E5600270A
:100AA000244D2B68002BFCD0234C0A2007F008FCB7
:100AB00020680B21FFF7BEFF08B9204B1870206893
:100AC0000C21FFF7B7FF80B91C4B1B786BB9DFF81F
:100AD00070903146D9F80000FFF718FB4146824676
:100AE000FFF7B0FD00BBC9F800A020681821FFF790
:100AF000A1FF10B9114B01221A7020681921FFF7CC
:100B000099FF70B90D4B1B785BB90D4C31462068CD
:100B1000FFF7FAFA0B498146FFF794FD38B9C4F89C
:100B2000009000232B60BBE7C9F80070DDE7276069
:100B3000F7E700BF2C060020300600200A0D002039
:100B40009C000020000080BF0000CA4243682DE9DD
:100B5000F0411B68D0F80880076901268E401E42CC
:100B600004460D460ED10E490E4A0F4840F2FD23B1
:100B700007F0CEFB0D4807F0CBFB0A4840F2FD2101
:100B800007F092FC3B6823EA06063E60D8F8003086
:100B9000294620464FF48872BDE8F041184700BF4F
:100BA000EA900000C09000002891000045910000EC
:100BB00043682DE9F0411B688768D0F81080012652
:100BC0008E401E4204460D460ED11049104A11486F
:100BD00040F29D2307F09CFB0F4807F099FB0C485F
:100BE00040F29D2107F060FCD8F800301E42BE693B
:100BF00029462046B44618BF4FF48023BDE8F04193
:100C000008BF4FF400334FF4A0326047EA90000071
:100C1000C090000028910000459100002DE9F04FA0
:100C20002F4F304D304E85B04FF0FF324FF0FF3335
:100C3000384605F013FB2B680A22591C91FBF2F091
:100C400002FB101008B12960EEE702332B6093FB22
:100C5000F2F102FB1133DFF8B0B0244CDFF8AC90B6
:100C6000BBB93068FFF720FD0390DBF80000FFF709
:100C70001BFD82462068FFF717FD8046D9F800006B
:100C8000FFF712FD039B009052461948414607F0BA
:100C90003FFB184807F03CFB174807F039FB174BA0
:100CA0001B78012B0CBF1648164807F031FB306843
:100CB000FFF7FAFC8246DBF80000FFF7F5FC804600
:100CC0002068FFF7F1FC0446D9F80000FFF7ECFCC0
:100CD0005346009042460648214607F019FBA3E719
:100CE0006406002018060020980600209C000020C2
:100CF000579100007B910000869100000A0D0020B2
:100D0000A5910000B89100002006002024060020D4
:100D10002DE9F043394887B007F0FAFA07F03CFFB5
:100D20004FF47A730A46A0FB030103FB0211C30BC5
:100D300043EA4143CA0B13F11906314DDFF8DC9049
:100D4000DFF8DC8042F100071422002101A807F03F
:100D5000F4FB0223D9F800000493CDE902350A23FD
:100D60008DF8143020BB27484FF0FF3407F0D0FA3D
:100D7000C8F800402448214607F0CAFA234805F085
:100D80002FFA07F009FF4FF47A74A0FB042304FB49
:100D90000133D00B40EA4340D90BB04271EB07035B
:100DA000D2DA301A07F08CFA193647F10007CBE790
:100DB000836801A95B689847044618B10146144846
:100DC00007F0A6FAC8F80040002CD3D12988B1F565
:100DD000806F0ED20F4B9A68DA605A689A601A6870
:100DE0005A6064224A4340F2FF31B2FBF1F21A60CA
:100DF000C4E7094807F08CFAC0E700BFC6910000BD
:100E0000080D0020E09100002F9200004406002011
:100E10000F920000FC05002058920000F805002009
:100E20001C06002070B50E480E4E0F4C0F4D07F0FB
:100E30006FFA4FF0FF324FF0FF33304605F00EFAF5
:100E4000D4E900321344A2681344E2689B1848BFF7
:100E500003339B102B60064805F0C2F9E9E700BF99
:100E60007392000044060020FC05002028060020A4
:100E7000540600202DE9F04F5648DFF88CA189B0C8
:100E800007F046FA4FF0FF324FF0FF335248534E0F
:100E9000534FDFF8848105F0E1F9524B1868C0F137
:100EA0006400FFF7E7F9504B1860504B0146186893
:100EB000FFF72AF94E4B316818604E4B044618680C
:100EC000FFF72CFA4C4B054619682046FFF726FA27
:100ED00001462846FFF71AF93968FFF717F900218C
:100EE0000546FFF7C3FB48B30023C8F80030434B67
:100EF00034601E68424BD8F800801D68C7F8008037
:100F00002846FFF7B3F94146FFF708FA5146FFF7C5
:100F1000B9FAFFF7EFFB0746B368DFF800815B68BB
:100F200006AA042130469847059090B16FF004015D
:100F3000C8F80010334807F0EBF946E0324928467C
:100F4000FFF79EFB10B9C8F80050D0E7C8F800A022
:100F5000CDE7DDE9064BA5FB0423CDE90223039B86
:100F60002A4A05FB0B330393DDE902010023FFF757
:100F7000E1FB8146DDE90201254B4FF0FF328B4258
:100F800008BF824202D26FF08501D1E7A7FB04457A
:100F900007FB0B551D4A002320462946FFF7CAFBD5
:100FA0001B4A4FF0FF31AA4208BFA1420346EAD3D1
:100FB000B26805990091146804214A463046A0475A
:100FC0000146C8F800000028B4D1124805F008F91D
:100FD00058E700BFAD920000540600203406002000
:100FE0003806002028060020240600209C0000204F
:100FF00020060020A4000020A00000203C060020C5
:1010000098000020E79200000000C84240420F0014
:101010003F420F0064060020980600204006002092
:1010200010B5314807F074F93048314C04F050FBEA
:10103000206020B9BDE810402E4807F069B92E485D
:1010400007F066F920680B21FFF780FD011E04DA26
:101050002A48BDE8104007F05BB920680C21FFF773
:1010600075FD011E01DA2648F3E720681821FFF715
:101070006DFD011E01DA2348EBE720681921FFF717
:1010800065FD011E01DA2048E3E720680B21FFF728
:101090008FFD014608B11D48DBE720680C21FFF7F2
:1010A00087FD014608B11A48D3E720681821FFF7E9
:1010B0007FFD014608B11748CBE720681921FFF7EB
:1010C00077FD014608B11448C3E7144B144A206861
:1010D0005A60144A9A608368DB6923B1BDE8104006
:1010E0000E490122184710BD0F9300002193000004
:1010F000300600204D950000289300004593000025
:101100006C93000093930000BA930000E1930000F9
:10111000189400004F940000869400000C060020F4
:10112000290A000000180003F0B5564889B001F004
:1011300051FEFFF775FF04220021534807F0FDF927
:1011400001220021514807F0F7FC012200215048FC
:1011500007F0F2FC012200214E4807F0EDFC0122CD
:1011600000214D4807F0E8FC4C484D4C04F0B0FA23
:10117000206010B94B4807F0CBF8206883684A49D3
:101180001B689847494B0146186010B1484807F062
:10119000BFF8484B3222DA60474804F099FA474BCF
:1011A000186028B9464809B0BDE8F04007F0B0B86B
:1011B000444807F0ADF8444804F08AFA434B1860FD
:1011C00008B94348EFE7434807F0A2F84FF47A70B4
:1011D00007F076F80026002700240125CDE90667F0
:1011E000CDE90354CDE901443B4B3C4900944FF415
:1011F00080623B4804F0FCFC3A4B18603A4B3B4998
:101200000094CDE90667CDE90354CDE901444FF4DC
:101210008062374804F0ECFC364B1860364B374997
:101220000094CDE90667CDE90354CDE901444FF4BC
:101230008062334804F0DCFC324B1860324B334997
:101240000094CDE90667CDE90354CDE901444FF49C
:1012500080622F4804F0CCFC2E4B18600223CDE9AD
:101260000243CDE90667CDE900442B4B2B4904949A
:101270004FF480622A4804F0BBFC2A4B186009B086
:10128000F0BD00BFBD940000FC0500204406002016
:10129000540600206406002074060020F09400002C
:1012A000F8050020F6940000B89000001C0600200D
:1012B00017950000007000402193000030060020C8
:1012C0004695000028930000679500003C0600202A
:1012D0006D9500008E950000110D0000E00E0020BD
:1012E0005002002084060020250E0000001300207C
:1012F000D002002088060020750E00002017002074
:10130000500300208C0600201D0C0000401B002014
:10131000D003002090060020950A0000601F0020E6
:10132000500400209406002038B54468816004F021
:101330000304032C054602D02CB1002000E0006815
:1013400000236B6038BD054A05490648452306F071
:10135000DFFF0248452107F0A7F8EEE7A895000057
:101360009F9D0000289100000B6801330B60014B2A
:101370001B681847A8000020014B1860704700BF89
:10138000A800002007B50B46002102460191034842
:1013900001A900F0C9FA03B05DF804FB691300006D
:1013A0002DE9F04FB0F81C9085B019F0080F0446F5
:1013B000039222D001290CBF49F0100949F02009FD
:1013C000A0F81C901434204604F0FEFC68B99F4A33
:1013D0009F49A048AC2306F09BFF9F48214606F09A
:1013E00097FF9A48AC2107F05FF8039B83F31188BD
:1013F000BFF36F8F05B0BDE8F08F984FDFF85482D0
:1014000009F00709022906D1204606F08EFF0028C0
:10141000D8D0012868D1D4F818B0A38BBBF1000F45
:101420000ADA0026256823F00703C4E9006643F0C2
:101430000103A383019627E003F00702511F01294E
:1014400034D8002123F00703062A25689BB2C4E99B
:1014500000110CD18D422A4638BF0A462AB1E18BD1
:1014600012680131E183002AF8D143F00203A3831B
:10147000204606F05AFF06460028DBD0A38B43F037
:101480002003A38300230193A38B03F007024A45A3
:10149000029203D0A268002A40F0F0801DB9019AA0
:1014A000002A00F036814FF00009E9E0042A0ED14D
:1014B00023F007039AB2A283204606F036FF0546C2
:1014C00018B142F02002A28300250195DCE74046D6
:1014D000634940F21B133A4606F01AFF40F21B1113
:1014E000384606F0E1FFEFE7032835D1B9F1000FE8
:1014F0000BD05C4940464FF4AB733A4606F008FF08
:101500004FF4AB71384606F0CFFF23685BB95649FC
:10151000404640F257133A4606F0FAFE40F25711A1
:10152000384606F0C1FF23691B6801935BB94F4938
:1015300040464FF4AD733A4606F0EAFE4FF4AD7103
:10154000384606F0B1FFA38B23F0070343F00603F0
:10155000A3830025AB4697E7042832D1B9F1020FE7
:101560000BD04349404640F25D133A4606F0D0FEA8
:1015700040F25D11384606F097FFE38B5BB13D49C1
:1015800040464FF4AF733A4606F0C2FE4FF4AF71D7
:10159000384606F089FF23695B6801935BB93349DC
:1015A000404640F261133A4606F0B2FE40F2611145
:1015B000384606F079FFA38B23F0070343F00403BA
:1015C000C6E7052832D1B9F1010F0BD02A494046B0
:1015D0004FF4B2733A4606F09BFE4FF4B2713846B0
:1015E00006F062FF23685BB91F49404640F265136D
:1015F0003A4606F08DFE40F26511384606F054FF7B
:1016000023699B6801935BB9184940464FF4B47352
:101610003A4606F07DFE4FF4B471384606F044FFBA
:10162000A38B23F0070343F0050391E70C4940F235
:101630006B133A46404606F06BFE002540F26B11F4
:10164000384606F031FF019584E700BF6E96000032
:101650009496000028910000AB960000CB95000006
:101660009F9D0000ED950000F99500001C9600007C
:101670003396000049960000589600004FF001098B
:1016800043F0080304F1140AA383504604F09CFBC2
:1016900068B93A4A3A49AC23404606F039FE39481F
:1016A000514606F035FE3548AC2106F0FDFE039BA1
:1016B00083F31188BFF36F8FB9F1000F38D1002D7C
:1016C0004BD1019B13B13049204698474FF020037E
:1016D000EFF3118B83F31288BFF36F8F5046CDF871
:1016E0000CB004F063FB68B9244A284981234046C2
:1016F00006F00EFE2648514606F00AFE1F488121DC
:1017000006F0D2FE504604F06FFBA38B23F00803D3
:10171000A383A38BDA0628D523F01003A38301212A
:10172000B4F81C9009F0070900297FF46BAE49E674
:10173000A1680029C3D00B68029A002B38BF002390
:1017400099464B6820461E465B46B047B9F1000FEC
:10175000B5D0D9F800304946EEE72946029A2D68FF
:101760005B46204606F0FDFDA9E713F020011EBFF1
:1017700023F02003A3830221D2E700BF6E9600006E
:1017800094960000AB96000095170000C0960000EC
:10179000D5960000F8B504460D4600F114064FF04A
:1017A0002003EFF3118783F31288BFF36F8F304666
:1017B00004F0FCFA68B90C4A0C490D48812306F084
:1017C000A7FD0C48314606F0A3FD0748812106F02D
:1017D0006BFE304604F008FBA5613A462046012125
:1017E000BDE8F840FFF7DCBD6E960000C096000033
:1017F00028910000D59600002DE9F04704460F46D9
:1018000006F0C5FD051E5EDB04F114094FF0200350
:10181000EFF3118A83F31288BFF36F8F484604F009
:10182000C5FA68B9384A39493948812306F070FD4C
:101830003848494606F06CFD3348812106F034FEF5
:10184000484604F0D1FAE38BA28B4FF6FF718B422E
:1018500002F0070650D0022E24D10133E38335462F
:101860004FF00108484604F0AFFA68B9264A2A4901
:101870002748AC2306F04CFD2848494606F048FDB1
:101880002148AC2106F010FE8AF31188BFF36F8F58
:10189000B8F1000F17D0002332463946204606F033
:1018A00060FD10E0930701D0062E0FD100233B60AE
:1018B0006368F3B9C4E900773546FEB952460221A0
:1018C0002046FFF76DFD2846BDE8F087052E18D0AD
:1018D000012E0BD012490E48124A40F2C91306F0ED
:1018E00017FD104840F2C91106F0DEFD6FF0040547
:1018F00004E01F606760DFE76FF00A054FF0000843
:10190000B0E76FF08505F9E76E960000C09600001D
:1019100028910000D596000094960000AB96000038
:1019200058960000CB9500002DE9F04F91B08B4602
:10193000029092461C4600259AF8000008B92846F5
:101940005EE325280AF1010707D0029B5946984714
:101950000028C0F25583013510E2182200210AA8A0
:1019600006F0EBFD9AF80130252B78D00022944642
:10197000164696461046394617F8013B2B2B00F0C9
:101980009D8000F29480202B00F09B80232B00F0A0
:101990009A8028B19DF8300040F004008DF83000A6
:1019A000BEF1000F05D09DF8300040F008008DF822
:1019B00030002EB19DF8300040F010008DF830005E
:1019C000BCF1000F05D09DF8300040F020008DF8EC
:1019D00030002AB19DF8302042F040028DF83020CE
:1019E0009DF8302002F04400442803D16FF38612A2
:1019F0008DF830209DF830202A2B42F080028DF89F
:101A000030207BD19DF8312042F001024B1C8DF833
:101A100031201A782E2A9DF831200CBF0121002197
:101A200061F341028DF8312074D15A782A2A6AD0A4
:101A3000013300210A26184610F8012BA2F13007C5
:101A4000092F40F28E809DF830200E91C2F34000A5
:101A500040EAD17161F341028DF830205AE00AF179
:101A600002078DF833309DF83130D90740F14981B4
:101A700054F8049BB9F1000F07DA9DF8302042F0CA
:101A800004028DF83020C9F100095A0740F1428163
:101A900054F8048BB8F1000F80F241819DF8313089
:101AA0006FF341038DF831304FF0FF3837E12D2BC4
:101AB0000CD0302B7FF46DAF01225CE74FF0010EAC
:101AC00059E7012657E74FF0010C54E7012052E790
:101AD0000CFB0202303A33461E4616F8010BA0F109
:101AE0003007092FF4D9994293D09DF830100D9208
:101AF000D20F62F341018DF830108AE70B460022C5
:101B00004FF00A0CE8E79DF8312042F004028DF80E
:101B1000312002331F4617F8012B6C2A41D025D8FB
:101B2000682A2BD06A2A46D04C2A4CD01F4617F878
:101B3000012B9DF831308DF83320782A00F2D980BE
:101B4000572A4DD8412A03D0453A022A00F2D180C3
:101B50009DF83230042262F302038DF83230012303
:101B60009EE006FB01213039034664E7742A26D043
:101B70007A2ADBD19DF8313006220DE05A78682AA6
:101B80009DF8312006D1012161F3C6028DF8312084
:101B90009F1CCCE71346022262F3C6038DF8313056
:101BA000C5E75A786C2A9DF8312001D10421EBE772
:101BB00013460322F0E79DF831300522ECE79DF84B
:101BC00031300722E8E7BDF8303023F4F04323F04A
:101BD000020343F4804343F00203ADF83030A6E73C
:101BE000A2F15801202900F2848001A050F821F0D0
:101BF000B51C0000F31C0000F31C0000F31C0000E7
:101C0000F31C0000F31C0000F31C0000F31C000098
:101C1000F31C0000511B0000F31C0000B51C000069
:101C2000751C0000511B0000511B0000511B0000DF
:101C3000F31C0000751C0000F31C0000F31C0000E6
:101C4000F31C0000F31C0000BD1C0000B51C0000CC
:101C5000D91C0000F31C0000F31C0000D91C00007C
:101C6000F31C0000B51C0000F31C0000F31C000076
:101C7000B51C00009DF83210012003F0780360F3DA
:101C80000201402B8DF8321002BF9DF8301041F058
:101C900001018DF83010632A31D1003B18BF0123B8
:101CA0009DF83020C2F340010B4363F341028DF8ED
:101CB0003020D8E69DF832100220DEE79DF8322071
:101CC00003F07803A3F14000032161F302024342D1
:101CD0008DF832204341E3E79DF83220032113F0D1
:101CE000780F61F302028DF8322014BF0123002324
:101CF000D6E79DF8303043F001038DF830300023F3
:101D0000CEE79DF93020002AB4BFDDF834904FF0C3
:101D1000FF39BAE69B077FF5C7AEDDF838809DF83E
:101D200031200023CDE90D339DF8323003F0070355
:101D3000012BC2F3C30236D1D31E042B20D8DFE817
:101D400003F00307071F1F0054F8040BC11704E03A
:101D5000073424F00704F4E80201CDE90A019DF8F4
:101D6000303013F0030654D002983B465246594691
:101D700006F084FB0028C0F243810544BA46DBE547
:101D800054F8040B012A4FEAE071CDE90A0105D1AC
:101D90009DF828300A9300230B93E0E7022ADED156
:101DA000BDF92800D2E7022B23D1D31E042B13D870
:101DB000DFE803F0030A0A12120020680A900021EB
:101DC000231D0B911C46CAE7073424F00703F3E8F0
:101DD0000201CDE90A01F5E754F8043B0A93012A10
:101DE0004FF000030B93D3D0022AB8D1BDF82830AE
:101DF000D0E7042B07D1073424F00704F4E80201EC
:101E0000CDE90A01ABE7032B04BF54F8043B0A9366
:101E1000A5E79DF833007828B0D8622822D8252875
:101E20003FF493AD5828A9D10DF126030093DDE9C5
:101E30000A0104AB0CAA06F0D6FA8246B8F1000FEC
:101E40000DF126000CDB9DF83020A0EB0A036FF3A8
:101E5000861298458DF8302002D9A8EB03030D9324
:101E600080463DE06338152888D801A151F820F05C
:101E7000F11E0000551F00007D1D00007D1D0000AB
:101E80007D1D00007D1D0000551F00007D1D000010
:101E90007D1D00007D1D00007D1D0000B31F0000A2
:101EA000811F0000851F00007D1D00007D1D0000BA
:101EB000C91E00007D1D0000811F00007D1D000067
:101EC0007D1D0000811F0000B8F1000FDDF828A083
:101ED0000ADB4146504606F010FB0AEB00080026DC
:101EE000BAF1000F0CD149E7504606F0FFFAF4E7CB
:101EF0000A9B8DF8103000260DF111080DF1100A23
:101F0000A8EB0A0306B101339DF83220D0066BD549
:101F1000023352060D9948BF0E9A0B4448BF9B18D6
:101F2000B9F1000F79DD9DF83020A9EB0309C2F368
:101F300080030393530770D4500664D546B1029BC7
:101F400059463046984700285ADB039B01351E4608
:101F5000302359E01E0711D413F0100618BF2026B5
:101F6000DDE90A23002A73F10001BFF65DAF52429A
:101F700063EB4303CDE90A232D2655E72B26EFE734
:101F8000002651E70A9848B30DF1260300930CAAE6
:101F900004AB002106F027FABDF8323003F0EF035E
:101FA00043F4F04343F010038246ADF8323000268C
:101FB00044E70A9B072A3FF6E1AEDFE802F00D0492
:101FC000060D08080D0D1D70D8E61D80D6E62846C2
:101FD000E917C3E90001D1E61D60CFE6DFF8C48050
:101FE0000646A8F1050A8BE7110748BF013390E7C1
:101FF000184603935946029B98470028039B04DA2E
:1020000011B0BDE8F08F20234D444A46002AA5EBCD
:10201000090109F1FF39EBDC0D4636B1029B594647
:10202000304698470028EBDB01359DF83230D90661
:1020300001D41A0706D5029B59463020984700283C
:10204000DEDB01359DF83230DB0607D59DF8330025
:10205000029B594698470028D2DB01350D9E2E443D
:10206000731B002B16DC029843465246594606F075
:1020700005FA0028C4DB0544A944A9EB0503002B9D
:102080007FF77CAE029B5946202098470028B7DB9B
:102090000135F2E7029B5946302098470028AFDB14
:1020A0000135DDE7F296000008B54FF02002EFF3AE
:1020B000118382F31288BFF36F8F00F0CFFE0348C5
:1020C00006F026F900F01AFAFCE700BFF3960000CC
:1020D0002DE9F84305464FF02003EFF3118683F313
:1020E0001288BFF36F8F234803F060FE68B9224A5D
:1020F00022492348812306F00BF91E49214806F0A6
:1021000007F91D48812106F0CFF91A4803F06CFE4B
:102110001D4B1C68002C38BF00249CB11B4FDFF8FE
:1021200078804FF00C09D4E90132002D08BF134626
:102130002BB198F8142009FB02F2B85C9847246888
:10214000002CF0D10B4803F03FFE68B90A4A104951
:102150000B48AC2306F0DCF806490E4806F0D8F828
:102160000548AC2106F0A0F986F31188BFF36F8F04
:10217000BDE8F8839C0600206E960000C096000023
:1021800028910000D5960000A0060020AC06002093
:1021900094960000AB960000A40C002000F01F03F2
:1021A00001229A400A4BBFF35B8F400903EB80008A
:1021B00050E8003F43EA020140E8001CBCF1000F78
:1021C000F6D1BFF35B8F1A4214BF01200020704785
:1021D000B806002030B51D4B1D7DBFF35B8F05F0A9
:1021E0001F0301229A401A4B690985B0D04303EBC3
:1021F000810353E8001F01EA000443E8004CBCF1EE
:10220000000FF6D1BFF35B8F114217D0114C0C2297
:1022100002FB054207CA01AB83E807000E4A7AB108
:1022200093E8070006F0AAF90020FFF751FF0C23FE
:102230006B430022E118E250C1E9012205B030BD34
:1022400082F31188BFF36F8FEEE700BFA40C00206C
:10225000A8060020AC0600207D8500002DE9F04195
:10226000374BDFF8F4801C7D88B007462046FFF727
:1022700095FF60B96E463A462146304606F01CF995
:1022800096E807000C2505FB048585E807000C236C
:10229000634308EB030218F80300650904F01F0606
:1022A000C8B37B1C0FD0D2F808E02648264A4FF46A
:1022B000004C00210023ECFB0E01FEF73BFA01214C
:1022C000381A05F091FB04F05BF90120FFF700FFDD
:1022D000BFF35B8F1D4B0122B24003EB850353E834
:1022E000001F114343E800100028F8D1BFF35B8FB3
:1022F0000C2303FB048494E8070005AB83E8070084
:10230000134A1AB193E8070006F025F9FFF762FFB8
:1023100004F02EFE01200F4ABFF35B8F0123B34070
:10232000DB4302EB850555E8002F1A4045E8002104
:102330000029F8D1BFF35B8F08B0BDE8F08100BF82
:10234000A40C00203F420F0040420F00A8060020CE
:1023500057850000B8060020AC060020014805F0B3
:102360001DBE00BFB88E000008B5D0B14368042B75
:1023700011D100220368BFF35B8F53E8001F0129CE
:1023800003D143E800200028F7D1BFF35B8F074853
:1023900008BF104608BD3BB1006803F059FE00209D
:1023A000F8E76FF4E040F5E70148F3E7E98FFFFF56
:1023B000EA8FFFFF10B5044618B90D4B0D485B6856
:1023C0009847616808290DD031F004030AD011F054
:1023D000020108D00848214603F042FB0023236095
:1023E0000023636010BD2068142206F0A6F8F7E70A
:1023F000840100201C970000BC06002010B5044694
:1024000018B9164B16485B6898476368042B23D0AD
:10241000082B21D0CBB92368BBB912484FF0FF324B
:102420004FF0FF33214603F0AFFA08B923681BB918
:102430000A4B0D485B68984720681422002106F07B
:102440007CF8636843F002036360206806F06DFB6C
:10245000636843F00103636010BD00BF8401002086
:102460001C970000BC0600204297000008B508B386
:102470004368042B10D101220368BFF35B8F53E83C
:10248000001F002903D143E800200028F7D1BFF343
:102490005B8F0BD1002008BD53B100684FF0FF32B5
:1024A0004FF0FF3303F0D4FC0028F3D00348F2E7E9
:1024B0000348F0E76FF4E040EDE700BFE98FFFFF6E
:1024C000EA8FFFFF08B5064906484023142206F0AC
:1024D00003FBBDE808400449044805F0C1BD00BF46
:1024E000DC060020BC060020D08E0000C08E00005C
:1024F000014910220A60704710ED00E072B64040BA
:1025000080F31188BFF36F8FBFF34F8F30BF62B678
:10251000BFF36F8F704700BF72B6494081F31188D7
:1025200020BF80F3118862B6704700BF43B2002B12
:1025300008DB012200F01F0002FA00F05B09024AEA
:1025400042F82300704700BF00E100E0054B42095C
:1025500000F01F0053F82220012303FA00F010407E
:10256000704700BF00E100E070B54C1C072C054629
:102570000E460FD9114A12491248592305F0C8FED8
:102580001148314607232A4605F0C2FE0B4859215F
:1025900005F08AFF6BB2002BACBF03F160430B4B1D
:1025A0004FEA4414B8BF05F00F05E4B2AABF03F523
:1025B00061435C5583F8004370BD00BF6F97000016
:1025C000A597000028910000C097000014ED00E0DE
:1025D00030BFFFF7FDBF00BF0B4A08B50B4B22F021
:1025E0007F029A60BFF34F8FBFF36F8FD3F88820BD
:1025F00022F47002C3F8882003F00EF905F020F8E9
:1026000000F026FA03F012F90000000000ED00E0EF
:10261000094A0A49936809689967094958674B68E4
:1026200043F080534B60002383F31188BFF36F8F17
:102630009368986F704700BFA40C00202C90000096
:1026400000ED00E012498A684FF030001044EFF3CB
:10265000098C80E8F01F202080F31288BFF36F8F71
:102660000C4F4FF00066CA698A603E60506F0023CD
:10267000536780F3118804B5104600F07FFABDE877
:10268000044002F1300090E8F01F8CF30988704795
:10269000A40C002004ED00E01EF0040F0CBFEFF3CB
:1026A0000880EFF30980816911F8021C0229FFD02C
:1026B00001B505F00CFF01BD42F8203C009B42F83B
:1026C0001C3C0A49019B42F8183C029B42F8143C0E
:1026D00021F001014FF0807342F8043C42F8081CDD
:1026E0000023203A02654367704700BFD383000090
:1026F0000B4A0346906890B113F1160F406E05D057
:10270000A0F120029A4206D8834204D281422CBF13
:102710000021012100E00021002908BF00207047AE
:10272000A40C002008B5094B98600D46144600F033
:1027300025FA204685F30988002163B681F31188C4
:10274000BFF36F8F0022002305F043FEA40C00208E
:1027500001B572B60B4A906900281EBF0021916135
:1027600006F0DCF962B6EFF30580A0F110004FEA45
:10277000C0000549014409C99847BDE80140034923
:1027800008470000A40C0020FC8C000091270000EA
:10279000044B9968D869884203D003494FF08052AE
:1027A0000A607047A40C002004ED00E0234B70B5D4
:1027B00015469A6A9A6A9A6A044690071AD5586B1F
:1027C0009A6A120616D519B19A6A22F080029A62A4
:1027D0009A6A9A6A9A6AD6060FD49B6A99070CD4A9
:1027E0000024164A936A43F0FF03936200232B7080
:1027F000204670BD6FF01500EAE7104E73681A05A9
:10280000EED52146FFF774FF044618B180F309881E
:102810000224E6E7B36ADB06E2D5094A09490A4819
:1028200040F2491305F074FD084805F071FD0448B5
:1028300040F2491105F038FED3E700BF00ED00E09B
:10284000009800003A980000289100008498000049
:102850000D4B9A6A9A6A9A6A920508D59A6B9A6A97
:10286000120404D518B19A6A22F400429A62064B07
:102870009A6A9A6AD20558BF9A6A9A6A002042F404
:102880007F429A620870704700ED00E0074B9A6A39
:102890009A6A9A6A9A6A9A6A9A6A9A6A6FEA024283
:1028A0006FEA12429A620020704700BF00ED00E01C
:1028B00070B5544B5C688AB00D46C4F3080400261A
:1028C00086F31188BFF36F8F02F07F43B3F17F4F20
:1028D00008D102F00C03082B04D012075CBF054698
:1028E00001267DB9484A4949494840F2F23305F08A
:1028F0000FFD484805F00CFD434840F2F23105F069
:10290000D3FD002500238DF80730E31E032B72D87A
:10291000DFE803F002696D493A4BDC6A14F0020407
:1029200069D1DA6A002A18DBDB6A5B004ED5AB6935
:1029300033F8022C4DF602739A420DD003F1604336
:1029400003F626631B780BB30DF10702012128461D
:10295000FFF72CFF044600E02C689DF807309BB978
:102960002022294602A805F0DDFD099B002E44D057
:10297000C3F3080222B96FEA53236FEA4323099392
:1029800002A9204605F0A1FD0AB070BD224B1B78BC
:102990002BB10DF107010120FFF75AFFDAE71F4BBA
:1029A0001B889BB213B1FFF771FFD3E71C49164A8E
:1029B000174840F2C32305F0ABFC1A4805F0A8FC09
:1029C00040F2C321104805F06FFDC6E714490E4AD6
:1029D0000F4840F2C72305F09BFC134805F098FC14
:1029E00040F2C721EEE70DF107020021AFE70DF13C
:1029F00007010020D0E70024AFE723F4FF7323F0A2
:102A00000103BCE700ED00E000980000A79800007B
:102A100028910000BA98000029ED00E02AED00E0BE
:102A20009F9D0000F89800001C990000024A53691D
:102A300043F010035361704700ED00E0EFF30880AE
:102A4000EFF3098101B57246FFF732FF01BD00BF08
:102A5000044800232021C2180133302B82F80013D0
:102A6000F9D1704700E100E0002080F31488BFF343
:102A70006F8F06F0B5F800200D490860BFF34F8F47
:102A80000C4880F3088800F029F8202080F3118892
:102A900009484FF40261401880F30988EFF314806D
:102AA0000221084380F31488BFF36F8FFFF794FD72
:102AB00094ED00E08027002000290020064A1168DC
:102AC0000023C1F3072118468B4200D17047936061
:102AD00010610133F8E700BF90ED00E008B572B671
:102AE000002383F31388FFF7E9FF144B4FF0FF3205
:102AF000C3F88020C3F88420C3F88820C3F88C2052
:102B0000C3F89020C3F89420C3F89820C3F89C2001
:102B1000C3F88021C3F88421C3F88821C3F88C212D
:102B2000C3F89021C3F89421C3F89821C3F89C21DD
:102B300062B6BFF34F8FBFF36F8F08BD00E100E0B7
:102B4000064B9B68834207D1EFF3058323B1044A08
:102B5000536843F08053536004F0BEBCA40C0020C3
:102B600000ED00E0024B034A0348012100F068B881
:102B70000000042000000020E48E0000426E054B9F
:102B8000203A1A60044A2021C3E9011218460121A3
:102B900000F07EB8DC0B002000000B15F0B51E4FD6
:102BA00000268E4201DB1046F0BD446884B353B169
:102BB00004F1FF3C14EA0C0F18D11F2C16D905683C
:102BC0001CEA050F12D1202C0568D0F808C0D2B23B
:102BD0000FD9B4F1004F0ED8013CB4FA84F4C4F11B
:102BE0001F046400072A4CEA040406D96FF015029A
:102BF000D9E70824F6E73E24F4E725F01F0515433E
:102C000045F0100544F00104BA60FD6001323C61FA
:102C100001360C30C5E700BF90ED00E0034B052204
:102C20005A60BFF34F8FBFF36F8F704790ED00E096
:102C3000BFF35F8F014B00225A60704790ED00E0B8
:102C400038B50E4D01232A780C46FFF7A7FF2870F0
:102C5000163011D140F21113094A0A490A4805F009
:102C600057FB2146094805F053FBBDE838400448AE
:102C700040F2111105F018BC38BD00BF0B0D00204B
:102C80004C9900009F9D000028910000839900004E
:102C900010B5124A002312780C46FFF77FFF10F19F
:102CA000160F08D00E4B0022072800DD10BD9860DB
:102CB0001A610130F8E70B4A0B490C484FF498733E
:102CC00005F026FB21460A4805F022FBBDE810402E
:102CD00004484FF4987105F0E7BB00BF0B0D0020CE
:102CE00090ED00E04C9900009F9D000028910000AD
:102CF000AF990000254910B50C68082C13D94FF482
:102D0000A473234A2349244805F002FB23480822E0
:102D1000214605F0FDFA1E484FF4A47105F0C4FBEE
:102D20004FF0FF3010BDFFF783FF48681C490022B9
:102D3000944200F10C0019D11A4B1C70FFF76EFF82
:102D40000B68C3F30723082B0ED01749104A12480B
:102D50004FF4D47305F0DCFA144805F0D9FA0C48A6
:102D60004FF4D47105F0A0FB0020DBE78A6050F837
:102D70000C3C23F01F03134343F01003CB6050F8C7
:102D8000043C43F001030B610132D1E7F08E0000F7
:102D90004C9900009F9D000028910000DC990000E4
:102DA00090ED00E00B0D0020109A0000609A0000EA
:102DB000014B1860704700BFCC0000200239012988
:102DC00002D8034B1B6818474FF0FF30704700BF15
:102DD000CC0000200FB407B504AB022153F8042B3C
:102DE00004480193FEF7A0FD03B05DF804EB04B0C6
:102DF000704700BF538500004FF02003EFF31181AF
:102E000083F31288BFF36F8F0F4A0123C2F8403556
:102E10004FF08042C2F878350C4A1268082A08D16F
:102E20000B4A1268052A04D80A48825C0AB10A4A89
:102E300013604FF080430122C3F8802581F311888D
:102E4000BFF36F8F0020704700E001403001001099
:102E500034010010909A0000380600404FF0804383
:102E6000C0B2C3F81C05BFF34F8F0549054BCA68B4
:102E700002F4E0621343CB60BFF34F8F00BFFDE766
:102E800000ED00E00400FA0520B1034B800143F09F
:102E900001031847704700BFB08E0000054A0123A8
:102EA000C2F8003508B1D36070471360024A13605E
:102EB000704700BF0070004004700040087970B592
:102EC00000F01F04072C1FD80B78092B1CD8DFE853
:102ED00003F006060606061B051E1B2005234A787E
:102EE000032A18D0042A0FD100254A8844F20A0682
:102EF000B24244D011D844F20306B2423BD044F26D
:102F00000506B24239D0D2B36FF0150032E0062385
:102F1000E5E70723E3E70125E7E744F21406B242B9
:102F20002FD044F22806B2422DD044F20F06B2420E
:102F3000EAD10322C0F340101B0243EA005343EAE4
:102F4000053343EA0243220102F1804202F5E042E6
:102F50000020C2F81835230103F1804303F5E04354
:102F60008A79C3F81425C3F81005084B1C444B7923
:102F700084F8903070BD0022DCE70122DAE70222FB
:102F8000D8E70422D6E70522D4E700BF00000020DE
:102F90002D4B1A6810B5002A48D000221A601B6811
:102FA0002A4C2B4B01211960C3F8F824636EC3B37C
:102FB000E36F43B1B4F8882004F164019847012815
:102FC00014D0022828D0B4F88830B4F884209A426B
:102FD00022D90133A4F888301E4BD3F82C26D3F81D
:102FE000341689B202EB4102C3F82C26A36F2BB929
:102FF00094F87600BDE81040FFF750BFBFF35B8F39
:1030000054E8003F5A1E44E800210029F8D1BFF3DC
:103010005B8F012BECDC10BDA36F13B10E4805F0E4
:10302000C1FD0E48BDE8104003F0DAB80C4B19683A
:103030000029F0D01A60064A1B680123136042F889
:10304000083C42F8043CE6E7047100400000002020
:103050000870004000700040080000205000002070
:1030600010710040F7B50D465D484FF0FF324FF04C
:10307000FF3303F0F3F8686810B96FF0150497E0B8
:1030800030F0FF02F9D1574C574F114620FA02F3A6
:1030900013F0010332D0BB1893F890C0BCF1000FBD
:1030A000EBD004EB021E6E7CDEF81835003E18BF34
:1030B000012623F0807343EA0663CEF8183502F147
:1030C00051031B01013144F803C0C9B20132082A7F
:1030D000DCD12B7C083B062BCFD801A252F823F081
:1030E000C53100007B300000073100007B3000005C
:1030F000BD3100007B300000C131000002F15106FB
:103100003601A351E2E70122364B0129C3F8F0252D
:103110006A7C59D9002AB0D1C3F8F4252A684B003B
:1031200012B1928902FB0333EA689A4254D32D4BC1
:10313000AA68C3F82C262F46C3F830160FCF2A4CA6
:1031400004F164060FC63B6833602B6800262666D0
:10315000002B3CD00FCB04F1780585E80F006566A5
:10316000A4F8886098B3BFF35B8F54E8003F44E84D
:103170000062002AF9D1BFF35B8F1C48A66F1C4A7E
:103180004FF4004500210023E5FB0601FDF7D2FACC
:103190000022CDE90001002304F1080004F044FE00
:1031A00014484FF0FF324FF0FF3303F057F8246E0E
:1031B0000B4803F015F8204603B0F0BD0222A3E748
:1031C0000322A1E700229FE7082AA5D955E794F832
:1031D0007600FFF763FEE3E76FF00B04E8E700BF5C
:1031E0004000002000700040000000203F420F001F
:1031F00040420F00500000200D4B10B500241C6011
:103200001B680C4B1C601B680B4B1222C3F8042379
:103210000720FFF78BF9224601210720FFF7A4F9C9
:103220000648836C13B9403002F0DAFF002010BD6D
:103230000471004010710040007000400000002048
:103240002DE9F041104C071BC7F347174FF00C084E
:1032500008FB07F8064608F148000D4620444021C7
:1032600005F0AEF9011E09DB084B4444C4E91035F2
:10327000074B53F83730BDE8F041184730462B462E
:10328000BDE8F041184700BFF80B0020238600007E
:10329000348F000038B5CCB2012C054609D9094954
:1032A00009480A4A792305F033F80848792105F0DE
:1032B000FBF82B690C2104FB0134A06C00F0070023
:1032C00038BD00BFD39A000028910000969A0000F4
:1032D000F8B5CCB2012C0769054616460BD918493A
:1032E0001848194A40F24D1305F012F8164840F2FA
:1032F0004D1105F0D9F84FF02003EFF3118283F35D
:103300001288BFF36F8F0C2303FB0471896C11F0DB
:10331000C00101D08E4210D103FB047301219964D6
:10332000002082F31188BFF36F8F28B9696801EB21
:10333000C404636898470020F8BD4FF0FF30F0E701
:10334000D39A000028910000969A000070B50D46AF
:103350000649411A0446491105484022FFF7B8FFC3
:103360002B4601462046BDE870401847F80B002068
:10337000548C0000002270B5012104461046FFF76E
:10338000F3F80020FFF7D2F80F4801F013FA0F4BC3
:10339000984215D101F032FA26690D49304605F000
:1033A00005F800280BDB0125B5642469084904F100
:1033B000200004F0FBFF002801DB6565002070BDE4
:1033C0006FF00400FBE700BF093400000000AD0B04
:1033D000448F000001460C2309484B4370B5C418C4
:1033E000D4E91056002248332264184405F006F947
:1033F0002DB132462B460348BDE87040184770BDDA
:10340000F80B0020548C0000012808B506D00328D2
:1034100008D0A8B9104B9B6C5B071BD1BDE80840D6
:10342000FFF7D8BF0D490E4A0E4840F25E2304F064
:103430006FFF40F25E21BDE80840094805F034B84E
:103440000649074A074840F2622304F061FF40F250
:103450006221F0E708BD00BFF80B00209F9D00002F
:10346000969A00002891000008B54FF02003EFF372
:10347000118183F31288BFF36F8F124A136843F0F0
:10348000020013F0010310600CD04FF08042D2F81C
:103490000C34D2F80C2413F0010303D00A4805F0D1
:1034A000ADF8012381F31188BFF36F8F23B1BDE81D
:1034B00008400020FFF78EBFBDE80840012001F062
:1034C000BDB900BF500C0020400C0020094BBFF3D9
:1034D0005B8F53E8002F22F0020143E80010002820
:1034E000F7D1BFF35B8FD30702D4012001F0FAB903
:1034F000704700BF500C00201FB500220123CDE90A
:103500000223094ACDF800D06B46CDF804D005F06F
:103510009AF8002805DB4FF480420023684602F049
:103520009DFE05B05DF804FB418600002DE9F843DF
:103530004949BFF35B8F0546012251E8003F41E84E
:1035400000200028F9D1BFF35B8FA3B94349444859
:103550004B60CB608A60FEF74FF900280BDA4149D7
:103560004148424A4FF4087304F0D2FE3F484FF4FA
:10357000087104F099FFADB36B1E012B56D8012DD5
:1035800007D14FF08043D3F81C3403F00303012B21
:1035900028D005F0BDFA044618B9354B1B78002B2E
:1035A00052D14FF02003EFF3118683F31288BFF35B
:1035B0006F8F01242F4FDFF8C480DFF8C4904FF0E5
:1035C0008042D2F81834D2F81824D2030CD503F074
:1035D0000303012B01D0012D06D10CB386F3118812
:1035E000BFF36F8FBDE8F883ACB13046FEF794FFB0
:1035F0004FF08042D2F81835002BE0D1396800290D
:10360000DDD03B603B680123C2F81835C8F8803133
:10361000C9F80030D3E70021212003F01FFFE7E7BE
:103620004FF080430222C3F80423DBE712490E481F
:103630000E4A40F2322304F06BFEBDE8F8430B481B
:1036400040F2322104F030BF4FF080430222C3F831
:1036500008230646AEE700BF540C0020E80B00200C
:10366000180C0020F79A000028910000969A00009C
:103670000C0D0020040100409F9D000000E100E0CF
:103680000800004008B5084B0848186005F01AFA11
:1036900038B10748FFF78CFB0548FDF76DFE0020A9
:1036A00008BD6FF01200FBE7580C0020B48C00003E
:1036B000B53600000A2838B5074D044604D12868FD
:1036C00083680D215B68984728688368E1B25B686E
:1036D0009847204638BD00BF580C002070B50569DA
:1036E00016460C4661B92249224A2348242304F095
:1036F0000FFE224804F00CFE1E48242104F0D4FEE4
:10370000636863B91E491B4A1B48252304F000FE69
:103710001C4804F0FDFD1748252104F0C5FE6B6828
:103720005BB100229C4213D123685AB9AA686B602E
:10373000944200D1AB600023236076B9002070BDB5
:103740000B46EFE71360AB689C4208BFAA60F2E744
:1037500019681A460029F3D13EB16B682360A86846
:103760006C600028EAD1AC60E9E76FF01500E6E78D
:10377000339B0000069B0000289100003C9B00004A
:103780004B9B00005D9B000043092DE9F04703D0EF
:10379000012B36D0BDE8F0871B4F3B695C68002CDD
:1037A000F8D02568DFF86C80DFF86C90DFF86CA04B
:1037B00000F01F000126002D06FA00F638BF002594
:1037C000A3681E4214D0636863B949464523424644
:1037D000504604F09DFD0D4804F09AFD45214046F9
:1037E00004F062FED4E9013221463240384698475F
:1037F000002DCFD02B68002B38BF00232C461D4650
:10380000DEE7034FC9E700BF6C8C00005D9B000042
:10381000848C0000069B0000749B0000289100002F
:103820007FB54068057B01F01F04B2F5005F44EAF4
:1038300045144FF0000504D1204601F0A5FB0020FF
:1038400054E0B2F5804FCDE9025551D1B3F5003FB8
:103850000CBF042305238DF80830836823FA01F197
:1038600011F0010155D1B2F5A03F52D166094AD0FD
:103870004FF6FF73012E08BF194604F01F05E940FB
:10388000CA070BD42B492C482C4A40F2292304F0B8
:103890003FFD2A4840F2292104F006FE6EB1012EB8
:1038A00034D027492448254A40F22E2304F030FD25
:1038B000224840F22E2104F0F7FD4FF0A04305F519
:1038C000E07553F82530DB0723D40DF107052946B1
:1038D000204601F083FA1B4B984219D1284601F08B
:1038E000DDFA194B984213D06FF00B0004B070BD95
:1038F000B3F5C02F05D0B3F5003F0CBF0223012361
:10390000A9E70323A7E74FF0FF31B6E70F4BD6E750
:1039100003950023194602AA204601F041F90A4BFB
:10392000984204D10121204601F0BEFA87E76FF0EA
:103930000400DBE7B39B000028910000809B00009F
:103940009F9D00000400AD0B0000AD0B0003005074
:1039500010B501F093FA044668B901F067FA084B14
:1039600098420AD10748214601F032FA2246052141
:103970000620FEF7F9FD002010BD6FF00400FBE704
:103980000000AD0B893700002DE9F04347683B7B11
:1039900001F01F0585B00E4645EA43151446CAB925
:1039A00002A9284601F01AFA0446284601F00EFB47
:1039B000484B984204D06FF0040005B0BDE8F08396
:1039C000844205D19DF8080001F062FAA042F2D1CC
:1039D0000020F2E74FF000090DF103013046CDE978
:1039E000029901F0FBF94B46804602AA4946284657
:1039F00001F0D6F8374B984202D06FF01500DCE7A3
:103A0000804503D19DF8030001F042FAA3054ED58D
:103A1000314B324A234093423AD00CD8062B14D073
:103A200004D893B1022BE8D104230EE0B3F5801F34
:103A3000E3D1012309E02A4A93422BD0B3F5A00F2A
:103A40002AD0B3F5800FD8D102238DF8043084F446
:103A50008073C3F30023E0068DF8053054BFC4F330
:103A60004013032321058DF8063017D57B6801210B
:103A700001FA06F6C3F80865002201A9284601F0FC
:103A800037F9144B984214BF6FF01500002094E7EB
:103A90000723DAE70523D8E70323D6E7620541BF0A
:103AA0007B68012101FA06F6C3F80C65E4E7E3063A
:103AB0004FF0000354BFC4F3401403241A4601A975
:103AC00028468DF8044001F06BF8024B98423FF411
:103AD0007FAF92E70000AD0B0600F000060010007B
:103AE0000200400002480021C2E9000100207047A6
:103AF0000024F40002464068126938B500F108035A
:103B0000043200F10C04194613F9015B002DB4BF17
:103B100000254FF40045A34222F8025BF4D10023B4
:103B20001A4601F015FC034B984214BF6FF00F00CA
:103B3000002038BD0000AD0B0268530910B50446E3
:103B40002CD0012B4FF6FF7318BF002302F01F0289
:103B5000D340DB070BD414491448154A40F22923FB
:103B600004F0D6FB124840F2292104F09DFC2368A2
:103B700003F01F025B0922600DD0012B11D00D490B
:103B80000A480B4A40F22E2304F0C2FB084840F2D8
:103B90002E2104F089FC4FF0A04010BD4FF0FF3300
:103BA000D4E70548F9E700BFB39B00002891000067
:103BB000809B00009F9D000000030050F0B54B79F2
:103BC000012B26D0032B21D110268B79032B1DD15D
:103BD000CC790CB1012C19D10A7912B1022A15D174
:103BE0000E220B684568B3F5164F2D6865D02DD8A9
:103BF000B3F5165F64D016D8B3F5966F62D00AD8C5
:103C0000B3F5967F61D0B3F5167F61D06FF0850074
:103C100052E00026D9E7B3F5166F5CD0B3F5965F96
:103C2000F4D1374B3CE0B3F5E14F57D007D8B3F5AB
:103C3000615F55D0B3F5964FE8D1324B30E047F68F
:103C40001227BB42E2D14FF4000329E0B3F5613FF4
:103C500048D013D8B3F5963F47D009D84DF6C027C2
:103C6000BB4244D0B3F5614FD0D14FF46B0317E0A2
:103C7000B3F5E13FCAD14FF0EB7311E0B3F5612F1B
:103C800038D008D8204FBB4237D0B3F5E12FBDD193
:103C90004FF0E86304E01D4FBB42B7D14FF08053B3
:103CA000C5F82435036903C9344322430433C5F8F6
:103CB0006C2583E803000020F0BD4FF41D03EFE7FF
:103CC000134BEDE74FF49E23EAE74FF4A033E7E709
:103CD0004FF41C33E4E74FF41D23E1E70D4BDFE71E
:103CE0000D4BDDE74FF06C73DAE70C4BD8E74FF480
:103CF0006503D5E74FF07063D2E74FF08063CFE7FD
:103D000000B0130000A04E0090D0030040420F000E
:103D10000050270000C0750000F03A0000903A0102
:103D20000268530910B504462CD0012B4FF6FF73DF
:103D300018BF002302F01F02D340DB070BD4144945
:103D40001448154A40F2292304F0E2FA124840F2DE
:103D5000292104F0A9FB236803F01F025B092260FC
:103D60000DD0012B11D00D490A480B4A40F22E23E9
:103D700004F0CEFA084840F22E2104F095FB4FF0F3
:103D8000A04010BD4FF0FF33D4E70548F9E700BF6E
:103D9000B39B000028910000809B00009F9D0000C5
:103DA00000030050F8B5066905460F4604F0B0FE62
:103DB00010B92C4B1B7883B94FF02003EFF311841B
:103DC00083F31288BFF36F8F284604F094FD28BB5D
:103DD00084F31188BFF36F8FEEE76424284604F064
:103DE0008AFD70B9012004F0D8FD013CF6D1002114
:103DF000212003F033FBF0E784F31188BFF36F8FCA
:103E0000F5E74FF02003EFF3118483F31288BFF33B
:103E10006F8F284604F06FFD0028EDD006F8107F64
:103E200069680B680122C3F84465C3F8482500227D
:103E3000C3F82021D3F82001C3F85821D3F8582122
:103E40004A68D20641BF0822C3F800254FF4800219
:103E5000C3F8042301229A6084F31188BFF36F8FA3
:103E6000F8BD00BF0C0D00202DE9F743D0F8048009
:103E70000769D8F800400023C4F800353860456869
:103E8000EB680646581C13D001A80193FFF748FFC2
:103E9000019A01239340C0F80835EB68019301A80B
:103EA000FFF73EFF019B03F5E073032240F8232058
:103EB0002B69591C11D02A7F0193002A01A814BF35
:103EC0004FF003094FF00009FFF72AFF019B03F5AC
:103ED000E0734FEA890240F823206B695A1C13D023
:103EE00001A80193FFF71CFF019A01239340C0F83A
:103EF00008356B69019301A8FFF712FF019B03F5D9
:103F0000E073032240F82320AB69581C11D06A7F6C
:103F10000193002A01A814BF4FF003094FF00009D4
:103F2000FFF7FEFE019B03F5E0734FEA890240F8BC
:103F30002320D5E903122B68C3F80C15C3F8142508
:103F4000D5E90512C3F808153169C3F81025043105
:103F50003046FFF733FE0546002846D1D8F8043036
:103F6000990719D507F1120001F02EF9224B98425A
:103F70003FD1B87CC30003F1804303F5F83304F16B
:103F80000C0204F59071C3F81015C3F814251B4AF0
:103F900001238340C2F804350823C4F8003598F89B
:103FA00008305BB9C4F81031D4F8103107F11103AF
:103FB000C4F834350123C4F838352360D8F8043008
:103FC0009A075CBF4FF48072C4F80423DB0644BF39
:103FD0004FF48003C4F8043310370023C4F8447549
:103FE000C4F848350123A360E360284603B0BDE868
:103FF000F0836FF00405F8E70000AD0B00F001401E
:10400000194970B5044622F07F460868C1E90023CB
:10401000A6F50013101AB3F5400F4FF000050AD2B1
:10402000124B19680A060B0A9219114943F1000351
:10403000C1E90023012503F027FDA30003F180431C
:1040400003F58833D3F84025B2420BD11DB94FF4A4
:104050000002C3F84025074B4FF4803000FA04F407
:10406000C3F8444370BD00BFE80400208C0C00205E
:10407000D00400200010014010B501238340114AF4
:10408000BFF35B8FDC4352E8001F01EA040C42E8F7
:1040900000CEBEF1000FF6D1BFF35B8F4FF480323C
:1040A00002FA00F002F1804202F58052C2F80803E1
:1040B000BFF35F8FBFF36F8F0B4214BF012000204F
:1040C00010BD00BF880C00200123124ABFF35B8F94
:1040D000834052E8001F194342E8001CBCF1000F66
:1040E000F7D1BFF35B8F0C4A4FF480338340C2F8A3
:1040F00004330A4BBFF35B8F1B68BFF35B8F23FA5C
:1041000000F0C30742BF064B4FF40032C3F8002152
:10411000704700BF880C002000100140840C002074
:1041200000E100E00D4B1B68190A1806BFF35F8F12
:104130000B4BD3F80435C01841F10001B3F5801FD3
:104140000AD2084BD3E90023994208BF904203D218
:1041500010F1807041F10001704700BF8C0C00200D
:1041600000100140D00400202DE9F04F85B0164624
:104170001F460546FFF780FF0190FFF7D3FFB942C6
:1041800008BFB0427FD2B6EB000867EB01090023FD
:104190004FF080724B4508BF4245C0F08580444BCC
:1041A00003EB0513D3E902239F4208BF964254D084
:1041B0004FEA85094FF4803B09F1804905F1500829
:1041C0000BFA05F209F588394FEA88081FFA88F8D2
:1041D0000292384AD9F8400526F07F4308F180481A
:1041E00008F588381C469346D2F804A5A0EB0A00CF
:1041F00020F07F402AF07F410128C9F8401505D101
:104200000393132004F0CAFC2A4A039B02990AF183
:10421000020CA4EB0C0020F07F40B0F5000F88BF2B
:1042200064460020C8F80000D8F80000CBF844131A
:1042300024F07F40C9F84005DBF80405824506D02C
:10424000201A023820F07F40B0F5000F19D8E41A88
:1042500024F07F44321947F10003154C290104EB87
:104260000510C0E902230E9A0F9B625043600024A0
:10427000019B13B12846FFF727FF204605B0BDE894
:10428000F08F2046B0E701230B4ABFF35B8FAB40B2
:1042900052E8001F194342E800100028F8D1BFF38C
:1042A0005B8F32463B46D8E76FF01504E0E700BF6E
:1042B000D804002000100140840C002073B5194B75
:1042C000194D00244FF0FF304FF0FF31C5F808457D
:1042D000C3E902014FF48033C5F80433134B0226BF
:1042E0004FF400320121C5F804631120C3F8802186
:1042F0002246FEF739F91120FEF718F90C4A01237E
:1043000013600C4A2B6013600B4B0C4A0093019412
:1043100000232046FFF728FF3046FFF707F9204625
:1043200002B070BDD80400200010014000E100E0A0
:1043300008100140880C002001400000FFFF7F00B2
:104340002DE9F743344CD4F804339A0709D5334B9D
:104350001A6832B100221A60314A1B6813680133AF
:1043600013604FF02003EFF3118283F31288BFF341
:104370006F8FD4F80433DB0312D5BFF35B8F294B67
:1043800053E8001F21F0010043E80006002EF7D19A
:10439000BFF35B8F244B002936D11968002933D134
:1043A000002382F31188BFF36F8F53B3FFF7BAFE78
:1043B00006464FF02003EFF3118083F31288BFF31A
:1043C0006F8F1A4BD3E90289494508BF46454FF024
:1043D00000021ED34FF0FF364FF0FF37D3E9001530
:1043E000C3E902671A604FF48033C4F8483380F39E
:1043F0001188BFF36F8F21B1009542464B460020D4
:10440000884703B0BDE8F083002119601B680123D1
:10441000C7E71146EBE700BF00100140041101405F
:104420008C0C0020840C002040110140D804002096
:10443000144B13B5B0F1FF3F08BF1846441E002CC3
:104440001EDD9C42A8BF1C46FFF76CFE0E4B0F49B9
:10445000D3E90023801AB0F5000F28BF00240130F3
:10446000044408480091844228BF044612194FF0C2
:104470000000019043F10003FFF776FE02B010BD8B
:104480000024E1E7FFFF7F00E80400200140000076
:1044900008B5FFF747FE024B1B68C01A08BD00BFF6
:1044A000E8040020034B1868A0F108035842584163
:1044B000704700BF30010010064B1B68082B06D167
:1044C000054B1B68052B02D8044AD05C70470020BE
:1044D000704700BF3001001034010010F19B000054
:1044E000024AD2F80034002BFBD0704700E00140B4
:1044F00010B5FFF7D7FF40B14FF080430022C3F85B
:104500000C21C3F81021C3F83825FFF7CBFF002892
:1045100046D04FF080525B4BD2F80414C3F82015FC
:10452000D2F80814C3F82415D2F80C14C3F82815CF
:10453000D2F81014C3F82C15D2F81414C3F830159F
:10454000D2F81814C3F83415D2F81C14C3F8401567
:10455000D2F82014C3F84415D2F82414C3F848152F
:10456000D2F82814C3F84C15D2F82C14C3F85015FF
:10457000D2F83014C3F85415D2F83414C3F86015C7
:10458000D2F83814C3F86415D2F83C14C3F868158F
:10459000D2F84014C3F86C15D2F84424C3F870253F
:1045A000FFF78AFF10B1384B384A1A60FFF784FFD3
:1045B00018B1374BFB22C3F81825FFF77DFF48B130
:1045C0003449354B0A681B6822F00F0203F00F03D1
:1045D00013430B60FFF770FF18B1304B4FF40072BC
:1045E0001A60FFF75FFF48B14FF08043D3F8002413
:1045F000D20744BF6FF00102C3F80024284B1B68A8
:10460000082B0ED1274B1B68052B02D8264AD35CFA
:104610003BB14FF01023D3F808224FF08043C3F88A
:1046200058254FF01023D3F80022002A03DBD3F8DB
:104630000432002B22DA1D490123C1F80435FFF7AB
:104640004FFF4FF010201224C0F80042FFF748FF40
:10465000C0F80442FFF744FF0023C1F80435FFF718
:104660003FFFBFF34F8F1249124BCA6802F4E0625A
:104670001343CB60BFF34F8F00BFFDE70E4B0F4AD4
:104680001A6010BD00C000408C56004048810300F5
:1046900000F00040E40E0040580200104096024036
:1046A0003001001034010010EB9B000000E00140DD
:1046B00000ED00E00400FA05F80000200090D003AF
:1046C00070B501250368B3FA83F2202AC2F11F04F2
:1046D00014D0BFF35B8F05FA04F223EA020250E81C
:1046E000006F9E4204D140E8002CBCF1000FF6D1CF
:1046F000BFF35B8FE6D102480C7070BD0148FCE748
:104700000000AD0B0200AD0B0368CB40DB0710B51A
:1047100015D4012303FA01F10368BFF35B8F41EA6B
:10472000030250E8004F9C4204D140E8002CBCF149
:10473000000FF6D1BFF35B8FEED1024810BD0248E7
:10474000FCE700BF0000AD0B0400AD0B08B578B16D
:1047500001281CD0144A154915484FF44F7303F033
:10476000D7FD11484FF44F7103F09EFE00200DE07D
:1047700031B14FF08043D3F8183403F003030B60DA
:104780004FF08043D3F81804C0F3004008BD31B1A6
:104790004FF08043D3F80C3403F001030B704FF05B
:1047A0008043D3F80C04EFE7F79B00009F9D0000C7
:1047B0002891000010B5044648B90A490A480B4A36
:1047C000BD2303F0A5FD0948BD2103F06DFE084B94
:1047D0001A7922B9012207481C609A8010BD064848
:1047E000FCE700BF689C0000289100002B9C0000A3
:1047F000900C00200000AD0B0C00AD0B08B50B4B6E
:104800001B794BB90A490B480B4AD62303F080FDAC
:104810000948D62103F048FE0020FDF797FE18B99D
:10482000BDE80840FDF782BE08BD00BF900C002027
:10483000769C0000289100002B9C0000224B1B79E5
:1048400013B504465BB921492148224A4FF48973C4
:1048500003F05EFD1F484FF4897103F025FE74B12B
:10486000012C27D01B4A1C4919484FF4A27303F0AE
:104870004FFD18484FF4A27103F016FE16E001A98F
:104880002046FFF763FF4FF0804388B1019A012A69
:104890000ED1C3F81825114B00221A601B684FF087
:1048A00080430222C3F8042301229A6002B010BDA3
:1048B0000022EEE70A4B00221A601B684FF080438B
:1048C000C3F804431C60F1E7900C0020769C0000C4
:1048D000289100002B9C00009F9D000004010040D7
:1048E0000001004037B52F4D2A7904465AB92E49A8
:1048F0002E482F4A40F24B1303F00AFD2C4840F299
:104900004B1103F0D1FD7CB1012C28D02949274857
:10491000274A40F2671303F0FBFC254840F2671179
:1049200003F0C2FD03B030BD4FF080430222C3F854
:104930000823C3F8044103F5827301221B681E4B50
:1049400042F210741A6000210846FFF7FFFE0028AB
:10495000E8D0012004F021F8013CF4D1E2E74FF067
:1049600080430022C3F80843C3F8002103F5807395
:104970001B68124B1C608DF8074042F210740DF159
:1049800007010120FFF7E2FE10B900236B71C9E7B0
:104990009DF807000128F8D103F0FFFF013CEED19C
:1049A000F3E700BF900C0020769C000028910000E7
:1049B0002B9C00009F9D00000C0000400400004064
:1049C000164B07B51A686AB100221A601B684FF0CF
:1049D00080430122C3F80823114B587910B95A714A
:1049E0001B6898470F4B1A686AB10020186001A92C
:1049F0001B68FFF7ABFE019A4FF0804332B90122EA
:104A0000C3F818259A6003B05DF804FB0222C3F8CE
:104A10000823034B01201B689847F4E7000100407E
:104A2000900C002004010040054B083033F81000C2
:104A300000F02200A0F1220358425841704700BF05
:104A4000FC00002070B500F108030C4C34F8133062
:104A5000DA0505460E4607D5C3F3432304EBC3022C
:104A600054F8333052689847A3682BB1E268314656
:104A70002846BDE87040184770BD00BFFC0000200C
:104A8000194B083010B533F81020D1051DD5C2F3ED
:104A9000432122F4F85223F8102003F110040020DF
:104AA00034F8022B12F4807F03D0C2F343229142E8
:104AB0000BD001303028F3D1002243F831200B48CD
:104AC000FFF722FE0A4B984200D110BD09490A485F
:104AD0000A4A4FF4997303F01BFCBDE810400748E5
:104AE0004FF4997103F0E0BCFC000020700100203D
:104AF0000000AD0BF89C000028910000949C000081
:104B000038B50A4C00F1080534F815309A0606D578
:104B10005B0B074A03F5A273002142F82310FFF74D
:104B2000AFFF002324F8153038BD00BFFC00002083
:104B30000060004010B50446006803F030FF58B92B
:104B400012491348134A40F2292303F0E1FB1148AC
:104B500040F2292103F0A8FC236803F01F025B093F
:104B600022600DD0012B0ED00B490948094A40F2B2
:104B70002E2303F0CDFB074840F22E2103F094FCD6
:104B80004FF0A04010BD0548FCE700BFB39B0000FC
:104B900028910000809B00009F9D000000030050B2
:104BA000F0B5044685B017461D46F1B1FFF73CFF4E
:104BB00010B14A4805B0F0BD0B46CDE900008DF8B4
:104BC0000E008DF80F000DF10F020DF10E012046C1
:104BD00003F0FAFE424A04F1080132F8113023F0E2
:104BE000020343F0010322F8113097B13C4B3E78A9
:104BF0007A6804F1080033F810108F070CD5002AEA
:104C0000D7D133F8102022F01C0242EA860223F8A2
:104C10001020CDBB3348CDE721F02001C904C90CD9
:104C200023F81010002AECD0032EC2D817782EB922
:104C30002D4A07F5A27142F82160E2E7BA0002F1BD
:104C4000804202F5C04241EA4731D2F810C52CF04B
:104C5000030CC2F810C5D2F810C52CF44F3C2CF44C
:104C6000407CC2F810C5D2F810E54FEA042C0CF4D1
:104C70007C5C4EEA064E4CEA0E0C41F0200123F813
:104C80001010C2F810C5BCE7D5E900672046FFF751
:104C9000F7FE002EBED0124D2B689E4204D16B68E9
:104CA0009F4201D100220AE010480DF10F01FFF7E9
:104CB00007FD0C4B98427FF47DAF9DF80F2045F81F
:104CC000326005EBC20308345F6035F8143043EA04
:104CD000422343F4807325F814309BE70400AD0BA6
:104CE000FC0000200000AD0B0060004070010020BF
:104CF000F0B5044685B0154609B300F10807314EFA
:104D000036F81730980701D49A0658D413F01C0FC0
:104D100002D04B78012B52D001238DF80F300023A5
:104D2000CDE900134A1C8B1C20460DF10F0103F046
:104D30004BFE36F8173043F0030326F8173015B949
:104D4000214805B0F0BD1F4E04F1080736F81700E2
:104D5000830734D595F800C06146890020F0200013
:104D600001F18041C00401F5C041C00C26F81700D4
:104D70000023C1F810356A78002AE1D0D1F8103547
:104D8000AD7823F4991323F4F853C1F81035D1F812
:104D900010E5230203F47C53120443EA0E0302F4E9
:104DA00040322D05134305F4801540EA4C302B4367
:104DB00040F0200026F81700C1F81035C0E703487E
:104DC000BFE700BFFC0000200000AD0B0400AD0BEE
:104DD000014BC3E902017047FC00002038B50446CE
:104DE0000D4659B90B490C480C4A40F2352303F0E3
:104DF0008FFA0A4840F2352103F056FB0834084B7D
:104E000033F814309A0643BF5B0B2B7005480648F5
:104E100038BD00BF0C9D000028910000949C00004C
:104E2000FC0000200000AD0B0400AD0B38B50E4CAB
:104E300094F87850B5B96022294604F1100003F0C7
:104E40007CFB0620FDF772FB084B09481D601B68C0
:104E5000084B4FF00042C3F80423012384F8783054
:104E6000636738BD0448FCE7FC0000207C6100401B
:104E70000000AD0B006000400500AD0B034B93F844
:104E80007800003818BF0120704700BFFC000020E8
:104E900001460148FFF738BC6C010020014601487B
:104EA000FFF70EBC6C010020F7B5314D00F108078B
:104EB000044635F8173013F01C0F0E460BD12D4960
:104EC0002D482E4A40F2DF3303F022FA2B4840F2FD
:104ED000DF3103F0E9FA35F8170083061FD510F02B
:104EE00002031CD1410B084603F06AFD00F180402B
:104EF00000F5C040036003688B0003F1804303F5B5
:104F0000C043D3F8102542F00102C3F8102526B1A2
:104F10001B4A01238B40C2F8043303B0F0BD5EB9D5
:104F200018491548154A40F2EE3303F0F1F91348D9
:104F300040F2EE3103F0B8FA35F81730C3F38203CC
:104F4000042B10D0052B10D001A80194FFF7F2FD1F
:104F5000019BD0F81015D94001F001010231204623
:104F600003F07DFDD9E70321F9E70221F7E700BF50
:104F7000FC000020169D000028910000949C000079
:104F8000006000402B9D00000E4B00F1080233F83A
:104F90001230990613D59A0711D45B0B01229A405F
:104FA0009B00094903F1804303F5C043C1F808237E
:104FB000D3F8102522F00302C3F810257047002112
:104FC00003F04DBDFC000020006000400E4B00F1DE
:104FD000080213B513F81230DB07044611D5FFF7AA
:104FE000D3FF2046FFF78CFD01A80194FFF7A2FD37
:104FF000019B03F5E073022240F82320034802B02E
:1050000010BD0348FBE700BFFC0000200000AD0B13
:105010000400AD0B2DE9F04F654B6648664900254D
:1050200089B001222C461E6836B1D0F804631642BE
:105030001EBF1C601E68154304338B424FEA4202B8
:10504000F1D15E4F3B687BB34FF0A0435C4ED3F889
:1050500020250692C3F82025D6F820350793C6F8F8
:10506000203501960DF118094FF000084FF0010BA3
:10507000D9F80030F3B908F12008B8F1400F09F170
:105080000409F5D13B603B6801994FF0A043D3F888
:1050900020250692C3F82025019BD3F820350793DD
:1050A000C1F820351343DDD10124002D68D109B0AA
:1050B000BDE8F08F93FAA3F3B3FA83F308EB03068A
:1050C00006F108023F4B059633F81220C2F3820323
:1050D000F40802939A4606AB06F007000BFA00FCB0
:1050E000185D20EA0C001855910805A80391FFF7F8
:1050F00021FD059C039904F5E0744B0750F824400A
:10510000C4F3014423D551463046FFF79BFC05A864
:105110000596FFF70FFD059A02F5E072E4B250F82C
:105120002220C2F30142944207D10021304603F00D
:1051300096FC2146304603F092FC05A80596FFF741
:10514000F9FC059B0BFA03F3C0F8203590E7022C1D
:105150000CBF03210221304603F081FC029B032B8C
:1051600004D0022C07D1BAF1010FE6D151463046E6
:10517000FFF768FCE1E7032CDFD1BAF1020FF4E797
:1051800095FAA5F3B3FA83F304FA03F29B0003F153
:10519000804303F5C04325EA0205D3F81005D3F890
:1051A0001015C0F30520C1F30141FFF74BFC7CE76C
:1051B0000061004000600040206100407C610040D0
:1051C00000030050FC00002001460148FFF778BAB8
:1051D000780100202DE9F04104460E4615465AB9E3
:1051E00032493348334A40F2A72303F091F831485B
:1051F00040F2A72103F058F92F685FB92E492C48D7
:105200002C4A4FF42D7303F083F82A484FF42D7184
:1052100003F04AF904EB4618C8F82075AF88002F50
:1052200038D12649234A224840F2BD2303F070F8C2
:1052300040F2BD211F4803F037F9C8F82475AF6864
:10524000B7F1807F0BD31E4919481A4A40F2C72391
:1052500003F05EF8174840F2C72103F025F9ED6826
:105260004FEA461804EB4616B5F1807FC6F828755C
:105270000BD314490E480F4A4FF4347303F048F827
:105280000C484FF4347103F00FF94444C4F82C5522
:10529000BDE8F0813B04D0D50B49064A044840F2F2
:1052A000BE2303F035F840F2BE21C3E7689D00003D
:1052B00028910000369D00007D9D0000959D000016
:1052C000BF9D0000E09D0000A19D00000268530901
:1052D00010B504462CD0012B4FF6FF7318BF0023E6
:1052E00002F01F02D340DB070BD414491448154ABF
:1052F00040F2292303F00CF8124840F2292103F070
:10530000D3F8236803F01F025B0922600DD0012B44
:1053100011D00D490A480B4A40F22E2302F0F8FF43
:10532000084840F22E2103F0BFF84FF0A04010BD16
:105330004FF0FF33D4E70548F9E700BFB39B000007
:1053400028910000809B00009F9D000000030050FA
:105350002DE9F04F064687B0914698460C4649B96C
:1053600059495A485A4A8C2302F0D2FF58488C2196
:1053700003F09AF83779574D0C2179436B181A7A54
:10538000002A40F09F80227B45F80190C3F80480FA
:105390009A72002A4DD0637B002B4AD0D6F8008049
:1053A000B4F808900123C8F80035B4F9083094F82F
:1053B00005B094F806A0002B0BDA47494348474A4A
:1053C0004FF4277302F0A4FF44484FF4277103F011
:1053D0006BF8C8F80CB53068C8F804A5C8F808958B
:1053E0006389C0F810350023C0F80032C0F80033DC
:1053F000C0F81C31D0F81C21C0F81031D0F81021B1
:10540000C0F81431D0F81421C0F80431D0F80431B8
:105410000C237B43EB581BB140F30730FDF786F8B4
:105420000C2303FB07552E4801232B7207B0BDE860
:10543000F08F04F1FF390DF1080804F1030A19F89F
:10544000012FFF2A39D0217B22F0800BC8F800B051
:10545000B1B91306CDF804B001A826D4FFF736FF82
:10546000019901228A40C0F80C2501A8CDF804B0AA
:10547000FFF72CFF019B03F5E073032240F8232084
:10548000D14508F10408DAD1637B002B86D133685B
:10549000029AC3F86025039AC3F86425049AC3F8F6
:1054A0006825059AC3F86C2578E7FFF70FFF019987
:1054B00001228A40C0F80825D7E74FF0FF33C8F82B
:1054C0000030DDE70748B1E73E9E0000289100006C
:1054D000039E0000980C0020479E0000369D0000AF
:1054E0000000AD0B0500AD0B2DE9F04198460379A6
:1054F0001446314A0E4603EB430102EB81070C21AF
:1055000001FB032305461B7A5BB92C492C482D4A25
:105510004FF4967302F0FCFE2A484FF4967102F0A5
:10552000C3FF5CB928492648264A40F22D1302F0F1
:10553000EFFE244840F22D1102F0B6FF336803F06D
:105540006043B3F1005F0BD020491D481D4A4FF462
:10555000977302F0DDFE1B484FF4977102F0A4FF31
:10556000286832460021FFF735FE286832460121BF
:10557000FFF730FE286804F0010303EB540418F031
:10558000010FC0F8144514D118F0020203D0002B0B
:1055900014BF08220422002BC0F8002239465FFA0B
:1055A00088F218BF0C23BDE8F04108BF082303F0C0
:1055B00065BA1022EFE700BF980C0020689E00003B
:1055C00028910000039E0000949E0000A79E00000A
:1055D00070B5124E04790C2202FB04620546127A61
:1055E0005AB90F490F48104A4FF4D57302F090FE94
:1055F0000D484FF4D57102F057FF0C232A6803FBC6
:105600000464237AD2F80421DBB21AB9981E18BFB9
:10561000012070BD01202072FBE700BF980C002024
:10562000689E000028910000039E000038B5144ACF
:1056300003790D460C2101FB032304461B7A5BB959
:1056400010491148114A40F2851302F061FE0F48DB
:1056500040F2851102F028FF23680022C3F80022DF
:1056600001225A602046FFF7B3FF38B92046FFF702
:10567000AFFF18B9002DF9D1284638BD0125FBE749
:10568000980C0020D09E000028910000039E00008E
:105690000E4B70B553F82040013053F82060A642FD
:1056A00000D870BDD4E900352846984765B1EB684D
:1056B00030B10028B8BF4042FF28A8BFFF201870B3
:1056C0005A7842F001025A700834E8E71890000056
:1056D00070B5054610B90024204670BD0378002B34
:1056E000F9D00F4A0F4C1646944208D10D4CB442E3
:1056F000F1D0204603F0E6F950B91834F7E7204618
:1057000003F0E0F910B12368AB42E5D01834EBE7C1
:105710002168284602F0FAFE0028EED1DCE700BF3F
:10572000FC8C0000548C0000F8B504460E464FF087
:105730002003EFF3118783F31288BFF36F8F01F01B
:10574000C5FE31460546204603F017F9042C0CD15E
:105750000A490B4A0B488F2302F0DAFD0A4802F08F
:10576000D7FD07488F2102F09FFE87F31188BFF312
:105770006F8F2846BDE8F840FDF7E2B9379F00007B
:10578000159F000028910000549F000030B50023B1
:1057900087B00122CDE904230F22CDE902320D4C5E
:1057A0000D4A01930D49182304EBC01403FB002399
:1057B0004FF4B075009305FB0011094B4FF4A07234
:1057C000204600F0B1F9637B23F00403637307B054
:1057D00030BD00BFF0040020A40C0020A027002052
:1057E000F95D000008B50A4B012202201A70FFF78C
:1057F0004FFF02F079FB0320FFF74AFF00F046FA63
:10580000FBF792FC034A137B23F00103137308BDDB
:105810000C0D0020700500200248034A0021121AD6
:1058200002F08BBE50020020CC0E002080B5DFF8C5
:10583000D880A6B088F308882D4D2E4E6B69DFF80E
:10584000CC9043F4007300246B61E02385F8223090
:10585000EC772C766C76AC7685F820406B6A43F456
:10586000E0236B6285F82340FDF7E0F8FCF740FE8B
:105870004FF0FF33AB62EB62FDF73CFAFDF772F9D4
:1058800040F20113ADF8243006ABB360CDE91F44FC
:1058900003F017F92046FFF7FBFE0120164DFFF736
:1058A000F7FE01F07DFC154B05930123144900948C
:1058B000CDE903434FF480624B46CDE901442846CD
:1058C000F56100F031F96A7B22F004026A73074641
:1058D000284601F065F82046FFF758FF094BF360B2
:1058E0004A46394628463475C6F80480FCF71AFF44
:1058F00000ED00E0A40C002070050020899F00004E
:1059000080230020F004002020310020E557000013
:105910002DE9F041164D174C174EA846AC420CD954
:10592000164917483C23324602F0F2FC154802F0B3
:10593000EFFC3C21304602F0B7FD444502D3002085
:10594000BDE8F081D4E9042141EA020313F0030326
:105950000BD1E068A361834201D12034DEE7A7695F
:105960000F600133A1611144F5E76FF01500E7E71F
:1059700000020020000200208E9F0000B39F000064
:1059800028910000D09F00002DE9F74304460E4601
:105990009046994600F108054FF02003EFF3118778
:1059A00083F31288BFF36F8F284600F0FFF968B9C0
:1059B000244A25492548812302F0AAFC2448294687
:1059C00002F0A6FC1F48812102F06EFD284600F07F
:1059D0000BFAA369EBB133601B68A361E369013380
:1059E000E3610024284600F0EFF968B9154A194927
:1059F0001648AC2302F08CFC1748294602F088FCBC
:105A00001048AC2102F050FD87F31188BFF36F8F6F
:105A100013E058EA090203D133606FF00B04E1E7A9
:105A20002246CDE900893946284601F06BF9044643
:105A300018B90A4B9B685B693360204603B0BDE828
:105A4000F08300BF6E960000C09600002891000011
:105A5000D596000094960000AB960000A40C0020A0
:105A60002DE9F04104460E4600F108054FF02003F1
:105A7000EFF3118783F31288BFF36F8F284600F08E
:105A800095F968B9224A23492348812302F040FC52
:105A90002248294602F03CFC1D48812102F004FD09
:105AA000284600F0A1F9D4F81880B8F1000F0FD102
:105AB000204601F025FB58B132684261C0F8788079
:105AC00000F06EFF39462846BDE8F04100F014BDF5
:105AD0003368A2691A603368A361E369013BE3613B
